:020000020000FC
:02000000F5C049
:1001EC0024E630E04FEF4DBF4FE34EBFA0E0B0E24E
:1001FC000E940101FFCFF3E0E8EEF73219F4E03191
:10020C0009F411C00E2F1F2F0E941A01913039F0E2
:10021C0041E0E40F40E0F41F99270C940301FD9397
:10022C00ED930C940E0108950F931F932F933F930E
:10023C000E9433013F912F911F910F91779F602C5A
:10024C00712C559F600C711C601629F4711619F4F1
:10025C0091E00C94320190E0089540E0702F812FD2
:10026C0055276627770F881F551F661F052E162EDC
:10027C00021A130A2AF07160502D612D0C9447015B
:0A028C007E7F4395403171F708951D
:00000001FF
